:020000040800F2
:10000000304B0020E5020008DD210008251F000814
:10001000D9210008DD060008E14B000800000000BF
:100020000000000000000000000000000D23000898
:100030009507000800000000E121000811230008D6
:10004000FF020008FF020008FF020008FF0200088C
:10005000FF020008FF020008FF020008FF0200087C
:10006000FF020008FF020008FF020008E106000886
:10007000FF020008FF020008FF020008FF0200085C
:10008000FF02000800000000FF020008FF02000855
:1000900095380008FF020008FF020008FF02000870
:1000A000FF020008FF020008FF020008FF0200082C
:1000B000FF020008FF020008FF020008FF0200081C
:1000C000FF020008FF020008FF020008FF0200080C
:1000D000E5210008FF020008FF020008FF020008F7
:1000E000FF020008FF020008FF020008FF020008EC
:1000F000FF020008FF020008FF02000800000000E5
:1001000000000000FF02000800000000FF020008DD
:10011000FF02000800000000FF020008FF020008C4
:10012000FF020008FF020008FF020008FF020008AB
:10013000FF0200080000000000000000FF020008AD
:10014000FF020008FF02000800000000000000009D
:10015000000000000000000000000000000000009F
:10016000000000000000000000000000FF02000886
:10017000FF02000800000000000000000000000076
:1001800000000000FF020008000000000000000066
:10019000000000000000000000000000000000005F
:1001A0000000000000000000FF020008FF0200083D
:1001B000FF020008FF020008FF0200080000000024
:1001C00000000000FF020008000000000000000026
:1001D000FF020008FF02000800F002F800F072F8C9
:1001E00014A696E8000CB244B344DA4501D100F0FD
:1001F00069F8BAE80F000FA696E83000A5EB0405F1
:1002000004EB0607AAEB0704A7F101074FEA15154F
:100210004FEA3414A4F10104AC4201D300F052F8C7
:1002200013F0010F18BFFB1A43F0010300F001F8AF
:10023000DBE71847FC6000001C6100000A444FF037
:10024000000C10F8013B13F0070408BF10F8014B35
:100250001D1108BF10F8015B641E05D010F8016B7A
:10026000641E01F8016BF9D113F0080F1EBF10F8DE
:10027000014BAD1C0C1B09D16D1E58BF01F801CB01
:10028000FAD505E014F8016B01F8016B6D1EF9D584
:100290009142D6D37047000070470000002300242D
:1002A00000250026103A28BF78C1FBD8520728BF86
:1002B00030C148BF0B6070471FB506F027F81FBD5F
:1002C00010B510BD00F02FF81146FFF7F5FF04F050
:1002D0008BFC00F04DF803B4FFF7F2FF03BC00F015
:1002E00055F800000948804709480047FEE7FEE747
:1002F000FEE7FEE7FEE7FEE7FEE7FEE7FEE7FEE7D6
:1003000004480549034A054B70470000FD230008D7
:10031000D901000830470020304B00203047002032
:10032000704770477047754600F02CF8AE460500E0
:100330006946534620F00700854618B020B5FFF700
:10034000DFFFBDE820404FF000064FF000074FF000
:1003500000084FF0000BAC46ACE8C009ACE8C0099F
:10036000ACE8C009ACE8C00921F007018D46704730
:1003700010B50446AFF300802046BDE81040FFF7FB
:10038000AABF000000487047300100200149182032
:10039000ABBEFEE72600020070474FF000020429C2
:1003A000C0F0128010F0030C00F01B80CCF1040CA4
:1003B000BCF1020F18BF00F8012BA8BF20F8022BD8
:1003C000A1EB0C0100F00DB85FEAC17C24BF00F87E
:1003D000012B00F8012B48BF00F8012B70474FF0AC
:1003E000000200B5134694469646203922BFA0E885
:1003F0000C50A0E80C50B1F12001BFF4F7AF090791
:1004000028BFA0E80C5048BF0CC05DF804EB890081
:1004100028BF40F8042B08BF704748BF20F8022BC4
:1004200011F0804F18BF00F8012B704710B500F095
:1004300009F8006810BD10B5044600F003F8046028
:1004400010BD00000048704730010020013A012A29
:1004500004D8002818BF5FEA014201D1002070478C
:1004600044F2C432C2F2000292F83430012BF5D0CB
:10047000012382F8343092F83530012B40F09B8014
:100480002DE9F043032382F8353000239363D2F83B
:1004900000C0D061DCF81C3003F00703052B03D04B
:1004A000032B08BF490000E0490011845184D36A3E
:1004B00042F2A51142F2011542F2DD04C0F600013C
:1004C000C0F60005C0F60004C3E90B515C63148C50
:1004D00093F82410012965D0012183F8241093F8A2
:1004E000251001295BD1022183F825100021D96351
:1004F0001968D3E91387D3F854E00E68BEF1000FF2
:1005000026F001060E60C8F804701CBFD3E9166718
:100510007760D3E91076D3F80880D3F8489006F0D6
:100520001F060123B3400CF10C057B6003464C60B1
:10053000B8F1100F04BF2B4605468B60CD600868EC
:1005400040F00E000860D9F80000C00305D5D9F8C6
:10055000000040F48070C9F80000BEF1000F05D023
:10056000DEF8000040F48070CEF80000086840F02B
:1005700001000860DCF81C00400505D4DCF81C0014
:1005800040F48060CCF81C00DCF80400800710D434
:10059000DCF8040040F00200CCF8040009E0002080
:1005A00083F82400906B40F008009063012082F8EB
:1005B0003500BDE8F043002082F834000020704789
:1005C000002070470020704710B582B040F228121A
:1005D00088B2C2F200021060C8B2642828BF64204A
:1005E00005F0B7FC41EC100B05F044FC51EC100B8E
:1005F0009FED130B53EC102B05F0BEFC05F078FCBF
:100600009FED110A01EE100A31EE000ABDEEC00A9C
:10061000052010EE104A8DF8040001A802218DF883
:10062000054000F07BFA06208DF806000DF106006B
:1006300002218DF8074000F071FA002002B010BDD1
:1006400000000000008039C000007F430020704798
:10065000002070470000000010B582B040F2281161
:10066000C2F200010860642828BF642005F071FC14
:1006700041EC100B05F0FEFB51EC100B9FED140B41
:1006800053EC102B05F078FC05F032FC9FED120ABC
:1006900001EE100A31EE000ABDEEC00A052010EE90
:1006A000104A8DF8040001A802218DF8054000F0E1
:1006B00035FA06208DF806000DF1060002218DF8AE
:1006C000074000F02BFA002002B010BD00BF00BFB1
:1006D00000000000008039C000007F43FEE70000FA
:1006E000B0B544F2BC2CC2F2000CDCE910E3DCF83B
:1006F0000020DEF8001003F01F03042410689C4063
:100700000C4218BF10F004051DD102249C400C427D
:1007100018BF10F0020523D1D94009071FD510F0EA
:10072000080008BFB0BD106820F00E001060012066
:1007300000FA03F1CEF80410CCF83C008CF8250048
:10074000DCF834101AE01068800603D4106820F03A
:1007500004001060CEF80440DCF8301099B9B0BD48
:100760001068800606D4106820F00A00106001208E
:100770008CF82500CEF80440DCF82C10002000296D
:100780008CF82400EBD044F2BC20C2F20000BDE89B
:10079000B0400847704700002DE9F04F83B00D6866
:1007A000002D00F0C78000F1200241F2004C0092C1
:1007B00000F13847C4F6000C06224FEAB726604520
:1007C00008BF0522052E38BF4FEAB72200260027B2
:1007D0004FF00108019209E00D68043735FA08F27C
:1007E00008F1010806F1020600F0A480A8F1010A50
:1007F000012202FA0AFE15EA0E09EDD0D1F804B082
:1008000003220BF003056C1EB240012C6FEA020CB0
:1008100010D88268CC6802EA0C02B440224382609D
:100820004268CBF3001422EA0E0204FA0AF42243CF
:10083000426003E0032D01D103251EE0C2688C68ED
:1008400002EA0C02B4402243022DC26015D16FF0BF
:10085000030202EA5A0B009A07F01C0452F80BE05C
:100860000F230D69A3402EEA0303A5402B4342F852
:100870000B30D1F804B00BF00305026805FA06F35B
:1008800002EA0C021A431BF4403F0260A4D041F27A
:100890006003C4F202031A6840F2004E42F0010203
:1008A0001A601A68C4F2010E02F001020292029A62
:1008B0002AF003024FF6084C7244CFF6FF7C52F840
:1008C0000C3007F00C050F24AC40A343019C04FA44
:1008D00005F52B4342F80C30DEF808204B6842EA5D
:1008E000090540F20C4CDC0258BF22EA0905CEF89B
:1008F0000850C4F2010CDCF800209C0242EA090511
:1009000058BF22EA0905CCF80050DEF804209C0309
:1009100042EA090558BF22EA0905CEF80450DEF87C
:100920000020DB0342EA090558BF22EA0905CEF898
:10093000005051E703B0BDE8F08F00002DE9F0430F
:1009400097B0D8B190F8411000294DD0242180F8FB
:100950004110D0E90017D0E902230E6827F0706734
:1009600026F001060E600F618F68012B27F4004707
:100970008F6007D142F400428A600CE0012017B07A
:10098000BDE8F08342F40442022B8A6003D14A6836
:1009900042F4006202E04A6822F400624A604A6857
:1009A00000F1100742F0007242F400424A60CA6847
:1009B00022F40042CA608CCFC6691A4342EA072279
:1009C000CA60026A32430A600A6842F001020A60A1
:1009D00000212022416480F84120016380F8421008
:1009E000002017B0BDE8F083002180F84010169178
:1009F000CDE91411CDE9121101A90546084644219B
:100A0000FFF7EDFC296845F60002C4F200029142AE
:100A100011D045F20042C4F200022846914295D11D
:100A20004020019001A800F07BFA80B1EFF3108024
:100A300072B600BFFEE78020019001A800F070FAB6
:100A4000002844D0EFF3108072B600BFFEE741F2F9
:100A50004C06C4F20206306812AC40F0010030606F
:100A600030684FF0120800F00100009000983068E4
:100A7000002740F00200306030684FF0040900F0B9
:100A80000200009000984FF4004012904FF0904008
:100A90002146CDF84C80CDE91477CDF85890FFF77A
:100AA0007BFE8020CDE9120840F20040C4F6000031
:100AB0002146CDE91477CDF85890FFF76DFEF06828
:100AC00040F40010F060F06800F4001022E041F201
:100AD0004C04C4F20204206812A940F00100206016
:100AE000206800F00100009000984FF440701290D0
:100AF000122013900020CDE91400042016904FF02E
:100B00009040FFF749FEE06840F48000E060E06854
:100B100000F4800000900098284617E72DE9F04186
:100B200044F27037C2F2000797F8402097F841303E
:100B3000202B40F0C580012A00F0C280054601202C
:100B400044F2287887F84000C2F20008D8F8004044
:100B500038680E468169090414D51920214601F030
:100B6000E3F9002840F0AC80D8F80000011B386899
:100B70001A29EFD381690904ECD5786C40F0200084
:100B8000786495E0212187F84110102187F8421000
:100B9000002179647D627E857963798DB1F5807FEE
:100BA00004D3FF223A854FF0807306E07A8D002A45
:100BB0003A8500F087804FF0007315F8011B8162C1
:100BC0007D62798D01397985511ED2B243EA0242A4
:100BD00042F298031A43398549F60045CFF600459D
:100BE0004368A5F5806633401A4342607A8D002A37
:100BF00052D00026C0F2FF16826992070CD400BFC3
:100C00004FF0FF30214601F08FF9002858D13868A5
:100C100081698907F4D5398D7A6A013912F8013B67
:100C200083627A627A8D013A7A8539857A8D1AB330
:100C30000A0421D18169090607D44FF0FF3021460B
:100C400001F072F9E0BB3868F4E7798DB1F5807F87
:100C500005D34168334601EA0502FF2107E0798D9B
:100C60004268CBB22A4042EA03424FF000731A4373
:100C700042F09802398542607A8D002ABCD10BE09F
:100C80004FF0FF30214601F04FF9002818BFBDE8B2
:100C9000F081D8F80000386881698906F0D52021F4
:100CA000C16141684EF60002CFF60062114041601A
:100CB000202087F84100002087F8420087F8400094
:100CC000BDE8F08142F298020021C0F2002283E7E1
:100CD00010B5C8B144F20040C2F20000D0F8D812FA
:100CE00091F89C2281F89D22042281F89C22407A6E
:100CF000002808BF10BD4EF61050CEF2000001686B
:100D000041F00601016010BD44F20044C2F200044B
:100D1000607A48B101F004FB4EF61050CEF20000AC
:100D2000016821F006010160D4F8D80290F89C1205
:100D30000429E8D190F89D1280F89C1210BD0000A3
:100D4000B0B5014644F20040C2F20000D0F8D842EB
:100D500069B194F89C02032818BFB0BDD4F8B8025A
:100D60004269002A7DD02046BDE8B040104701EB23
:100D7000810100EBC100406AD4F89412022969D1C4
:100D8000D4E90712914217D9891AD4F8C422012351
:100D900082F83430002302F1240CE1618CE80B006E
:100DA00011634FF480731068114621F8103F02F070
:100DB00075F9D4F8C42241E01CD1A069884219D346
:100DC000D4F89812884215D2D4F8C4120120002514
:100DD00081F834004FF480720868C1E90955C1E90F
:100DE0000B5521F8102F02F059F9D4F8C422C4F899
:100DF000985223E094F89C02032805D1D4F8B80255
:100E0000C16809B120468847D4F8C42201209074F3
:100E100092F890024FF48071012811820BD0106873
:100E200040F63F730188194048F290035940018011
:100E3000002082F890020520C4F89402106802F5A0
:100E4000A8710023C2E95933C2F86C31A2F85031BD
:100E500002F024F994F8A002012802D1002084F8BD
:100E6000A002B0BD10B544F20042C2F20002014639
:100E7000D2F8D80259B190F89C22032A18BF10BDAD
:100E8000D0F8B82292693AB3BDE81040104701EBA0
:100E9000810102EBC101D1F86421D0F89412032939
:100EA0001AD1D0E95713994217D9D0F8C442C91AB8
:100EB000C0F85C11994238BF0B464FF0000C206817
:100EC00004F5A871C4E95923C4F86CC1A4F850C151
:100ED000BDE8104002F0E2B810BD90F89C12032962
:100EE00006D1D0F8B812096911B1044688472046E6
:100EF0000421C0F89412D0F8C4220120002382F803
:100F000034004FF4807410681146C2E90933D3628B
:100F100021F8104F1363BDE8104002F0BFB8000085
:100F2000F0B581B0036841F288021903C4F20202ED
:100F300056D44FF0000ED90700F0BB801168476807
:100F400021F0030139431160990740F1B580116820
:100F5000876821F00C0139431160590740F1AF80D7
:100F60001168C76821F0300139431160190740F159
:100F7000A9801168076921F0C00139431160990601
:100F800040F1A3801168476921F440613943116041
:100F9000590640F19D801168876921F44051394319
:100FA0001160190640F197801168C76921F440412A
:100FB00039431160D90540F191801168076A21F425
:100FC000403139431160990540F18B801168476ABF
:100FD00021F4402139431160590540F1938082E0AA
:100FE00052F8301C5FEAC10C0BD452F8301C41F0AF
:100FF000805142F8301C52F8301C01F080510091B1
:10100000009947F20004C4F20004216841F48071A1
:10101000216044F22871C2F200010E682568ED05D6
:101020001BD40D68AD1B022D14D82568ED0514D412
:101030000D68AD1B022D0DD82568ED050DD40D688A
:10104000AD1B022D06D82568ED0506D40D68AD1B35
:10105000022DE3D94FF0030E1CE09668076C16F4DE
:10106000407610D0BE420BD09668956826F4407644
:1010700045F480359560956825F4803595609660D7
:10108000F60740F0978091684FF0000E21F4407110
:1010900039439160BCF1000F08D452F8301C21F0A4
:1010A000805142F8301CD90703D047E7D9077FF4B5
:1010B00045AF99073FF54BAF59073FF551AF1907BA
:1010C0003FF557AF99063FF55DAF59063FF563AF62
:1010D00019063FF569AFD9053FF56FAF99053FF5A3
:1010E00075AF59050ED51168876A21F4401139434F
:1010F000B7F5801F116005D152F87C1C41F48011B6
:1011000042F87C1C19050ED51168C76A21F440010C
:101110003943B7F5800F116005D152F87C1C41F4BA
:10112000801142F87C1CD9040ED51168076B21F0A0
:1011300040713943B7F1807F116005D152F87C1CB2
:1011400041F4801142F87C1C99040ED51168476B5C
:1011500021F040613943B7F1006F116005D152F8B9
:101160007C1C41F4801142F87C1C59040ED5116896
:10117000876B21F040613943B7F1006F116005D1F1
:1011800052F87C1C41F4801142F87C1C19040ED5E5
:101190001168C06B21F040510143B0F1805F1160D4
:1011A00005D152F87C0C40F4803042F87C0C70463B
:1011B00001B0F0BD0D6841F288364FF0030E94681F
:1011C000A4073FF560AF0C68641BB4423FF642AF22
:1011D0009468A4073FF557AF0C68641BB4423FF610
:1011E00039AF9468A4073FF54EAF0C68641BB44256
:1011F0003FF630AF9468A4073FF545AF0C68641B19
:10120000B442DCD946E70000002804BF0120704743
:10121000F0B542F20003C4F20203196811F00E0F98
:101220000AD11968022262F303011960196801F0FA
:101230000F01022940F0AC81D0F800C041F2080251
:101240005FEACC71C4F2020204D15FEA8C7140F112
:10125000D580BEE0416852F8087C022934D00329C9
:1012600035D1BF0140F194815768566842F200447D
:10127000C6F3031607F0030755680136C0F2F404FD
:10128000032F04BF41F20024C0F27A04B4FBF6F746
:101290005668C5F306256F43C6F34166022505EB84
:1012A0004606B7FBF6F74BF20046C0F2C446B7421B
:1012B0004CD9176817F0F00F40D05FEA8C7745D50E
:1012C0008768002F42D139E0BF0303D460E17F0576
:1012D00040F15E81176807F00C07042F36D01768BD
:1012E00007F00C07082F31D0176807F00C070C2FF8
:1012F0002CD15768566842F20044C6F3031607F033
:10130000030755680136C0F2F404032F04BF41F20D
:101310000024C0F27A04B4FBF6F75668C5F306253C
:101320006F43C6F34166022505EB4606B7FBF6F7A9
:101330004BF20046C0F2C446B74207D917680826E8
:1013400066F307174FF0010E176001E04FF0000E33
:1013500014688E0024F003040C43146044F22874D3
:10136000C2F20004256841F28837116801F00C01CF
:10137000B14224D02168491BB94200F2BB801168F8
:1013800001F00C01B1421AD02168491BB94200F2A8
:10139000B180116801F00C01B14210D02168491BE5
:1013A000B94200F2A780116801F00C01B14206D0E9
:1013B0002168491BB9424FF00301D6D9E9E05FEA41
:1013C0008C7106D4BEF1000F18D0116821F0F00125
:1013D00013E05FEA4C7103D5116841F4E0611160DC
:1013E0005FEA0C7104D51168072767F30D211160BE
:1013F0001168876821F0F00139431160196801F024
:101400000F01032932D31968022767F3030144F25D
:1014100028751960C2F200052C6841F288371968F6
:1014200001F00F01022921D02968091BB94261D8B6
:10143000196801F00F01022918D02968091BB94267
:1014400058D8196801F00F0102290FD02968091B2B
:10145000B9424FD8196801F00F01022906D0296856
:10146000091BB9424FF00301D9D992E05FEA4C71F0
:1014700005D51168C36821F4E061194311605FEA82
:101480000C7106D51168006921F4605141EAC00071
:101490001060106842F20041C0F2F40100F00C004C
:1014A0000428084629D0106800F00C00082841F2F2
:1014B0000020C0F27A0020D0136803F00C030C2B3C
:1014C0001AD15368576803F00303C7F3031756682C
:1014D0000137032B08BF0146B1FBF7F05168C6F393
:1014E0000626C1F341610223704303EB4101B0FBC7
:1014F000F1F002E003214CE00020116827A2C1F3C3
:101500000311515C40F2200701F01F01C84044F66E
:10151000D351C1F26201A0FB01124FF0FF3101EB88
:1015200092130021C2F20007B1EB136F38602FD184
:1015300044F22C724EF210064EF62350C2F2000214
:10154000CEF20006CEF2000017787360F02303702D
:10155000B16007213160012F4FF0010119D150F81E
:10156000173C0026C3F3022383F00707042F28BF8C
:101570000427033B38BF33464FF0FF3606FA07F720
:10158000FF4307FA03F31B0103701170002100E011
:101590000121BDE8F0400846704700BF0000000090
:1015A000000000000102030406070809002804BF28
:1015B00001207047F0B581B0D0F800E041F20002A0
:1015C0005FEACE71C4F2020254D15FEA8E7178D420
:1015D0005FEA0E7100F1BB805FEA4E7100F1F980A5
:1015E0005FEA8E6100F19F81C169002900F0F983F3
:1015F000936803F00C030C2B40F06082012900F08B
:101600007D81D168026A01F00303934240F0768144
:10161000436A6FF00F0701F0F00207EB03139A42E1
:1016200040F06C81826A01F4FE43B3EB022F40F07C
:101630006581C26A01F07843B3EBC26F40F05E810E
:10164000036B0027CFF6E07707EA035301F4C002EB
:10165000A3F500139A4240F05181406B4FF07E4257
:1016600002EA006001F0C06100F17E40814240F07A
:101670004581B6E3916801F00C03D168082B00F0B6
:101680009F80032583F00C0325EA01011944B1FA78
:1016900081F1490940F094804568116844F228734B
:1016A000B5F5803FC2F2000307D0B5F5A02F40F09A
:1016B000A68141F480211160116841F480311160EC
:1016C000A7E19168D36801F00C01042900F0C18002
:1016D00003F0030381F00C0183F002031944B1FA13
:1016E00081F1490940F0B580C3681168002B00F012
:1016F000B78141F4807144F228731160C2F2000393
:101700001C681168490500F110821968091B02293B
:1017100000F25A831168490500F107821968091B14
:10172000022900F251831168490500F1FE81196810
:10173000091B022900F248831168490500F1F5816F
:101740001968091B02294FF00301DAD93DE3436907
:10175000D2F89410002B00F01F8141F0010144F2F7
:101760002873C2F89410C2F200031C68D2F89410D7
:1017700089073FF531AF1968091B022900F224835C
:10178000D2F8941089073FF527AF1968091B022981
:1017900000F21A83D2F8941089073FF51DAF19683B
:1017A000091B022900F21083D2F8941089073FF533
:1017B00013AF1968091B02294FF00301D6D904E3BE
:1017C000116889037FF501AF416800297FF4FDAE00
:1017D00094E0916D5FEAC10C08D4916D41F08051A5
:1017E0009165916D01F080510091009947F20003DD
:1017F000C4F200031968C90500F18280196844F237
:10180000287441F480711960C2F2000425681968D7
:10181000C90575D42168491B022900F2D5821968CF
:10182000C9056DD42168491B022900F2CD821968CF
:10183000C90565D42168491B022900F2C5821968CF
:10184000C9055DD42168491B02294FF00301DED987
:10185000BBE21168490502D5C16800294ED0516824
:10186000036921F0FE4141EA0361516040F2200129
:10187000C2F20001096844F6D353C1F26203A1FB2E
:1018800003134FF0FF3101EB93140021B1EB146F00
:1018900034D144F22C7C4EF210034EF6235EC2F299
:1018A000000CCEF20003CEF2000E9CF800505C60FB
:1018B000F0248EF80040996007211960012D4FF047
:1018C000010140F082825EF8173C4FF0FF35C3F310
:1018D000022383F00704042C28BF0424033B05FAE9
:1018E00004F438BF0023E44304FA03F31B018EF829
:1018F00000308CF80010D0F800E069E6012164E2C5
:101900008368D2F89010012B08D0052B40F0488155
:1019100041F00401C2F89010D2F8901041F001019A
:10192000C2F8901049E18369D2F89810002B00F0BA
:10193000048141F0010144F22873C2F89810C2F208
:1019400000031D68D2F8981089073FF54DAE19685D
:10195000491B022900F23882D2F8981089073FF516
:1019600043AE1968491B022900F22E82D2F8981062
:1019700089073FF539AE1968491B022900F2248214
:10198000D2F8981089073FF52FAE1968491B022934
:101990004FF00301D6D918E221F0010144F2287377
:1019A000C2F89410C2F200031C68D2F894108907A0
:1019B0007FF512AE1968091B022900F20582D2F8E0
:1019C000941089077FF508AE1968091B022900F2F7
:1019D000FB81D2F8941089077FF5FEAD1968091BC9
:1019E000022900F2F181D2F8941089077FF5F4AD55
:1019F0001968091B02294FF00301D6D9E5E121F44A
:101A0000803111601168002D21F48021116000F0F7
:101A10002E811C68116889033FF5D7AD1968091B31
:101A2000642900F2D181116889033FF5CEAD1968B0
:101A3000091B642900F2C881116889033FF5C5AD0F
:101A40001968091B642900F2BF81116889033FF5F9
:101A5000BCAD1968091B64294FF00301DAD9B4E160
:101A600021F4807144F228731160C2F200031D68F2
:101A7000116849057FF5ACAD1968491B022900F2D0
:101A8000A381116849057FF5A3AD1968491B022997
:101A900000F29A81116849057FF59AAD1968491BD2
:101AA000022900F29181116849057FF591AD19680D
:101AB000491B02294FF00301DAD986E1136844F289
:101AC000287C23F080731360C2F2000CDCF8003035
:101AD000022940F0A3801168890140F12281DCF8DD
:101AE0000010C91A022900F26F811168890140F1C2
:101AF0001881DCF80010C91A022900F2658111680A
:101B0000890140F10E81DCF80010C91A022900F2A7
:101B10005B811168890140F10481DCF80010C91A69
:101B200002294FF00301D6D94FE15168036921F032
:101B3000FE4141EA036151604AE521F0010144F2AE
:101B40002873C2F89810C2F200031D68D2F89810EA
:101B500089077FF549AD1968491B022900F23481D4
:101B6000D2F8981089077FF53FAD1968491B022903
:101B700000F22A81D2F8981089077FF535AD1968EF
:101B8000491B022900F22081D2F8981089077FF5BD
:101B90002BAD1968491B02294FF00301D6D914E176
:101BA00021F00101C2F89010D2F89010002B21F022
:101BB0000401C2F8901000F0818044F22873C2F250
:101BC00000031C6841F28835D2F89010890700F1B3
:101BD0009F801968091BA94200F2F680D2F8901084
:101BE000890700F195801968091BA94200F2EC8071
:101BF000D2F89010890700F18B801968091BA9425F
:101C000000F2E280D2F89010890700F18180196813
:101C1000091BA9424FF00301D6D9D6E00321106871
:101C2000800140F1D780DCF80000C01A022800F2E1
:101C3000CB801068800140F1CD80DCF80000C01A34
:101C4000022800F2C1801068800140F1C380DCF8F6
:101C50000000C01A022800F2B7801068800140F12D
:101C6000B980DCF80000C01A0228D8D9ADE01C68A1
:101C7000116889037FF5A9AC1968091B642900F272
:101C8000A380116889037FF5A0AC1968091B64293A
:101C900000F29A80116889037FF597AC1968091BD7
:101CA000642900F29180116889037FF58EAC196870
:101CB000091B64294FF00301DAD986E044F2287346
:101CC000C2F200031C6841F28835D2F890108907EF
:101CD0001ED51968091BA94276D8D2F89010890739
:101CE00016D51968091BA9426ED8D2F89010890739
:101CF0000ED51968091BA94266D8D2F89010890739
:101D000006D51968091BA9424FF00301DDD95CE033
:101D1000BCF1000F3FF564AC916D21F080519165ED
:101D20005EE4D16848F20C03C0F29F131940D0E979
:101D300008356FF00F07D0E90A4ED0E90C6007EBC9
:101D400005150027CFF6E077194307EA0656294321
:101D5000A6F500164FF07E4741EA042107EA00602D
:101D6000314300F17E4041EACE610843D060106803
:101D700040F080701060D06840F08070D060DCF877
:101D80000000116889012CD4DCF80010091A02291E
:101D90001AD81168890124D4DCF80010091A022924
:101DA00012D8116889011CD4DCF80010091A022924
:101DB0000AD81168890114D4DCF80010091A022924
:101DC0004FF00301DDD900E0032101B0BDE8F04090
:101DD00008467047D0684FF6FC71CFF6EE610840B8
:101DE000D0600021F1E70000011F4FEAB102432358
:101DF0004FF03F0C042A38BF0CEBB10344F2DC6116
:101E0000C2F20001CB5C012B6BD1032A13D8DFE8AF
:101E100002F0020E060A022281F83F200EE00222A2
:101E200081F841200AE0022281F8422006E00222E5
:101E300081F8402002E0022281F84320096800F086
:101E40001F0201200B6A00FA02F293430B620B6A35
:101E50001343A1F18042A2F596324FEAB222062A3C
:101E60000B623FD8904010F0650F3BD0486C42F6B3
:101E7000FF32C4F2010240F40040914248640FDC9A
:101E8000B1F1804F1ED040F20040C4F20000814208
:101E900018D040F60000C4F20000814212D01CE0CD
:101EA00042F60040C4F2010081420BD044F200002F
:101EB000C4F20100814205D043F20040C4F20100A7
:101EC00081420AD188680722C0F201021040062828
:101ED00007D0B0F5803F08BF7047086840F00100A8
:101EE0000860704742F6FF30C4F201008142C7DD4E
:101EF00043F6FF70C4F20100814202DC42F600406A
:101F0000D6E744F20000C4F201008142DAD044F680
:101F10000000C4F20100814202BF486C40F400405E
:101F20004864DAE7FEE70000B0B544F2703CC2F264
:101F3000000CDCF800309A69D20602D4002000219F
:101F40008DE01022DA619A69920647D478B1421C7A
:101F500049D19869800641D4986980065CBF986928
:101F60005FEA80603AD498698006F2D536E044F2A0
:101F70002870C2F2000002685A689CF842E09C692E
:101F800024040BD512F4804208D1BEF1200F05D0F5
:101F9000596841F480415960016800BF9A6992060E
:101FA00019D40268521A192A56D89A69920612D47C
:101FB0000268521A192A4FD89A6992060BD40268FD
:101FC000521A192A48D89A69920604D40268521AF9
:101FD0001A2AE3D340E09A699206CCD52020D86132
:101FE000012104203BE044F22872C2F2000202E028
:101FF0009D69AD06F2D41468641A8442F8D95C680D
:102000009CF842E09D692D040AD514F4804407D160
:10201000BEF1200F04D0596841F480415960116825
:102020009D69AD06E4D415686D1A192D14D89D6903
:10203000AD06DDD415686D1A192D0DD89D69AD0654
:10204000D6D415686D1A192D06D89D69AD06CFD462
:1020500015686D1A1A2DE3D39869012124209A6915
:10206000D50505D54FF4807140F00100D9610121FB
:10207000550504D4920509D469B90020B0BD40F0DB
:1020800008004FF480619205D96104D540F0020048
:102090004FF40071D9619969890744BF00219962A1
:1020A0009969C90703D1996941F00101996159689A
:1020B0004EF60002CFF6006211405960DCF8441081
:1020C0000843CCF8440020208CF8410000208CF814
:1020D00042008CF840000120B0BD0000806A016819
:1020E0004A6822F003024A600021418441850121AF
:1020F00080F83510816B41F0080181637047000062
:10210000C16951B9806A01684A6822F002024A60D6
:1021100000214184012180F8351043F6EC7CC2F2A5
:10212000000CDCF8BC02002808BF704710B543F66D
:1021300004414418627861880223012A237007D180
:1021400001F5F05291B2B1F5705118BF114661809E
:10215000A38889B2994205D9CB1AC02B08DA4FF46B
:10216000F65114E05B1AC02B0ADA4FF4EA510EE084
:102170004FF4F051B3F56D5F88BF4FF4EA5106E0BC
:102180004FF4F051B3F56D5F88BF4FF4F651DCF8B2
:10219000C022043093680222984700202070BDE8D6
:1021A0001040704743F6EC70C2F20000D0F8BC0259
:1021B00088B143F6044108444178012201290270A4
:1021C00018BF7047418801F5F0518AB2B2F57052DC
:1021D00018BF0A4642807047FEE70000FEE7000095
:1021E0007047000010B544F2C430C2F2000001682C
:1021F0004B688A6802F04104012C0ED113F04004B0
:102200000BD0CA68436A23F8022B4362428D013A1D
:102210004285428D002A52D010BD940737D513F065
:10222000800434D0C26932F8023BCB60C261428C78
:10223000013A4284428C002AEED14A6843F6EC7C93
:1022400022F0A0024A60012180F83510C2F2000C91
:10225000DCF8BC020028DFD043F604414418627861
:1022600061880223012A237007D101F5F05291B24F
:10227000B1F5705118BF11466180A38889B29942A7
:1022800025D9CB1AC02B28DA4FF4F65134E09B063F
:1022900058BF10BD530607D54B6823F060034B6051
:1022A000836B43F00203836312070CD54A6822F064
:1022B000A0024A60816B41F00401816303E04A6837
:1022C00022F060024A60012180F8351010BD5B1ACF
:1022D000C02B0ADA4FF4EA510EE04FF4F051B3F597
:1022E0006D5F88BF4FF4EA5106E04FF4F051B3F54B
:1022F0006D5F88BF4FF4F651DCF8C022043093685C
:10230000022298470020207010BD00007047000096
:1023100044F22870C2F20000016801310160704788
:1023200010B594B047F214000021C4F20000CDE9CA
:102330000A11CDE9081150F8141CC26E01F4C061F5
:1023400042F48072B1F5806FC2662BD150F8141C34
:10235000012262F34A2140F8141C40F22001C2F22B
:1023600000010968322251434DF68362C4F21B32E8
:10237000A1FB0212910C00BF0268520511D54A1C44
:102380000FD0026852050CD559B10268520508D524
:10239000012906D00268520503D50229A1F10401E2
:1023A000EAD10068212006904FF480300790012088
:1023B0000C90022003242B210D90CDE90E40CDE995
:1023C0001010CDE9120006A8FFF7F0F818B1EFF3EE
:1023D000108072B6FEE70F20CDE901040020CDE9A0
:1023E0000300059001A8FEF70FFF20B1EFF3108066
:1023F00072B600BFFEE714B010BD00004EF6885064
:10240000CEF20000016841F47001016070470000E5
:1024100040F2FF7C0268C4F2000C604512DD40F619
:102420000003C4F20003984215D043F20043C4F203
:10243000010398420FD042F60043C4F201039842D0
:1024400009D00CE0B0F1804F05D040F20043C4F257
:102450000003984203D14B6822F070021A4343F202
:10246000FF33C4F2010398420BDC604518DCB0F185
:10247000804F2AD040F20043C4F20003984224D097
:1024800027E044F2FF33C4F20103984211DC43F227
:102490000043C4F20103984217D044F2000310E055
:1024A00040F60003C4F2000398420ED042F6004307
:1024B00007E044F60003C4F20103984205D044F259
:1024C0000043C4F20103984203D1CB6822F4407266
:1024D0001A4380B54B6922F0800E8A6843EA0E03E6
:1024E000D1F800C00360C262A0F18042A2F596322A
:1024F0004FEAB222072AC0F828C0BDE8804007D8BA
:10250000012303FA02F212F0E50F1CBF096901630F
:10251000012141610169C90708BF7047016921F0C4
:10252000010101617047000080B504A000F066FB66
:1025300040F29410C2F2000080BD00BF41554449F2
:102540004F20436F6E6669670000000000207047EF
:10255000F0B581B00446D0F8BC02002844D001296F
:102560003FD1D4E9B02143F60443C618D1F89471A1
:102570005369B288051DB9B2A81801229847B088DE
:102580000744B8B2B0F5705FB7800ED1307800273D
:102590000328B78013D1D4F8C0024FF4F0518368F8
:1025A0002846012298473770B788707838B9B8B292
:1025B000B0F5F05F02BF012070704FF4F057D4F80F
:1025C000C42215FA87F002F5C67CC02300278CE8E8
:1025D0008900106802F5BC710123A2F8783100F07F
:1025E0005DFD002001B0F0BD032001B0F0BD000092
:1025F000B0B5D0F8C412012391F89022A1F8783137
:10260000012A3DD00A6891F88441938848F2800CF1
:102610000CB35B0407D5938840F60F7423406344E2
:1026200003F58043938093885B0606D5938840F634
:102630000F742340634440339380938840F60F74B3
:10264000234063444033938040F63F7E43F60F734C
:1026500048F2800407E05B0443F60F7E07D50CF5D3
:10266000804440F60F7395882B40234393809388D2
:1026700003EA0E0343EA0C039380002281F89022C0
:10268000D0F8BC120024C0F8784139B1D0F8C0129B
:102690000546496800208847C5F8BC420020B0BD07
:1026A00040F2CC001222C2F200000A807047000003
:1026B000D0F8BC12002904BF0320704710B543F6C0
:1026C0000A428C18217801290FD194F8421002296E
:1026D0004FF000010AD1D0F8C00201696078884744
:1026E0000021217084F8411000E00021BDE8104075
:1026F0000846704700207047014640F25C006D229A
:10270000C2F200000A807047014640F2E0000A224F
:10271000C2F200000A8070472DE9F04381B040F218
:102720009437C2F200070446C0F8BC72D0F8C40265
:102730004FF0010901210122C023A4F87A914FF042
:10274000C00800F01FFB002643F60541A4F878916D
:102750007E5039440E71D4F8C01243F6044003256C
:102760000B683D544BF68030462100223E6098476E
:1027700070B9D4F8C422381DC2E96308106802F5A4
:10278000BC71C2F89461A2F8789100F087FC002532
:10279000284601B0BDE8F08380B504A000F02EFA11
:1027A00040F29410C2F2000080BD00BF4155444980
:1027B0004F20496E74657266616365000020704742
:1027C0000020704740F208100422C2F200000A8084
:1027D0007047000080B504A000F010FA40F2941099
:1027E000C2F2000080BD00BF53544D6963726F6533
:1027F0006C656374726F6E696373000080B504A0CA
:1028000000F0FCF940F29410C2F2000080BD00BF5D
:1028100053544D333220417564696F20436C6173AA
:10282000730000000020704747F29050C1F6FF701F
:10283000026883684FF01A0C9B18A1F800C000F0E2
:10284000A680B0B54FF0370C1A0F0CEB137140682F
:10285000B3F1204F38BF02F1300140F20C12C2F246
:102860000002917019014FF0000E0CEB117582F807
:1028700003E0C3F30364B1F1204F38BF04F1300526
:10288000190215710CEB117582F805E0C3F30354BE
:10289000B1F1204F38BF04F13005190395710CEBED
:1028A000117582F807E0C3F30344B1F1204F38BF3C
:1028B00004F13005190415720CEB117582F809E06A
:1028C000C3F30334B1F1204F38BF04F130051905CB
:1028D00095720CEB117582F80BE0C3F30324B1F190
:1028E000204F38BF04F1300519061573C3F30314E4
:1028F0000CEB1175B1F1204F4FEA037103F00F0398
:1029000082F80DE038BF04F1300503F13704957308
:1029100082F80FE0B1F1204F38BF03F13004010F0E
:102920000CEB1073147482F811E0B0F1204F38BF33
:1029300001F1300301010CEB1174937482F813E080
:10294000C0F30363B1F1204F38BF03F1300401023B
:102950001475C0F303530CEB1174B1F1204F4FEA1F
:10296000003182F815E038BF03F130040CEB11732D
:10297000947582F817E0C0F30340B1F1204F38BFDF
:1029800000F13003137682F819E0BDE8B04040F260
:102990000C10C2F200007047F0B581B00A46D0F8C2
:1029A000BC1200230029ADF8023000F0BF8013787C
:1029B00013F0600328D0202B3BD15378012B64D037
:1029C000812B36D143F60B43CC18054620464021D7
:1029D0001646FDF7E2FC0221F088C5F89412D5F8FE
:1029E000C412012281F834200022C5E90600C1E9A1
:1029F0000940C1E90B204FF48072086821F8102FBC
:102A000000F04CFB002292E055780B2D11D81346B4
:102A10000022DFE805F0068C0E0E0E0E640E0E0E80
:102A2000747D90F89C1203297CD10DF102010222E1
:102A30006AE0D0F8C402012190F890224FF480732C
:102A4000012A8174038205D180F852110021A0F877
:102A500050116BE0026840F63F7713883B4048F224
:102A60009007CFF6FF777B401380002380F89032E9
:102A700080F85211A0F85031108843F60F710840C9
:102A800007F57F614840108050E0D3881746002B3F
:102A90004FF000024BD043F60A468D1943F60B4621
:102AA0000E440321C0F89412D0F8C442C0F8583143
:102AB000C0F85C31206804F5A871C4E95963C4F812
:102AC0006C21A4F8502100F0E9FA01202870B879AF
:102AD0007979002285F8410085F8421027E0D978FD
:102AE0004FF40452B2EB012F24D1DA8840F25C019A
:102AF000C2F20001092A28BF0922123104E090F82D
:102B00009C22032A0ED1012200F04AF800220EE096
:102B100090F89C22032A05D19A78012A02D80A60EB
:102B2000002204E0D0F8C40200F006F803221046A8
:102B300001B0F0BD0022FAE780B590F890124FF096
:102B4000010C4FF48073012980F812C0038204D174
:102B500000F5A871A0F851311EE0036840F63F72FD
:102B6000B3F800E000F5247102EA0E0248F2900E7C
:102B7000CFF6FF7E82EA0E021A80002280F89022B1
:102B800080F852C1A0F85021188843F60F72104007
:102B90000EF57F62504018800020087080BD000054
:102BA0000223C0F89432D0F8C432C0E906220120D2
:102BB00083F834000020C3E90912D8624FF4807C06
:102BC0001868194621F810CF1A6300F067BA0000A0
:102BD0000421C0F89412D0F8C422012082F83400F5
:102BE0004FF4807C10681146002321F810CFC2E911
:102BF0000933D362136300F051BA0000002808BF04
:102C0000704710B5027892B1831C4FF0000C00BFE2
:102C100013F8012C72B11A787AB15A7882B19A7885
:102C20000CF1040C002A03F10403F1D10AE04FF087
:102C3000000C07E04CF0010C04E04CF0020C01E049
:102C40004CF0030C5FFA8CF2022340F2941E03EB6B
:102C50004202C2F2000E0A808EF8002003228EF893
:102C60000120037883B3023002224FF0000C00BF32
:102C7000D1B25EFA82F40EF8013084F801C010F887
:102C8000013C0BB3911CCCB25EFA81F10EF804301A
:102C900081F801C00378BBB1111DCCB25EFA81F19D
:102CA0000EF8043081F801C043786BB1911DCCB2AD
:102CB0005EFA81F10EF8043081F801C083780832A1
:102CC000002B00F10400D3D1BDE810407047000094
:102CD000027901F00F03934288BF704710B501F0ED
:102CE000070404EB840300EBC3024FFA81FC02F5F6
:102CF000A873BCF1000F48BF02F1100390F89022B6
:102D0000C90959700021012A99701C7037D0197BAC
:102D100091BBD0F800E0BCF1FF3F3EF824104FEA31
:102D2000440210DD49044BF2800C09D53EF8121024
:102D300040F60F731940614401F580512EF81210CE
:102D400043F60F7311E0490648F2A00C08D53EF88F
:102D5000121040F60F742140614420312EF81210F9
:102D6000D978012908D040F63F733EF81210194077
:102D700081EA0C012EF81210002180F89012BDE8B3
:102D8000104070472DE9F04701F0070404EB840779
:102D900000EBC7064FFA81F806F5A877C909B8F124
:102DA000000F48BF06F11007797090F890121E4688
:102DB0006FF3DF2601293C703E61FA7008BFBDE861
:102DC000F0870121D0F800A080F890123AF8245042
:102DD00047F2706E4FEA440C032A25EA0E0509D02B
:102DE000012A04D0002A08BF45F4007504E045F428
:102DF000806501E045F4C06548F2800ECFF6FF7EA5
:102E000045EA0E052AF81C503AF81C5040F60F719E
:102E10002940214341EA0E012AF81C10397B48F26F
:102E2000800E00294CD03AF81C1040F60F63194070
:102E300048F28003022A08BF03F5807319432AF879
:102E40001C10BAF850100AEBC4033C89194424F052
:102E50000104A1F80044BAF850107C89194424F008
:102E60000103A1F804343AF81C30B8F1000F4AD439
:102E7000590409D53AF81C1040F60F7211407144FC
:102E800001F580412AF81C103AF81C10490608D5B3
:102E90003AF81C1040F60F721140714440312AF884
:102EA0001C103AF81C1043F60F7211400EF54052F8
:102EB00051402AF81C103AF81C1040F63F724DE0C1
:102EC000BAF85090F988E500B8F1FF3F21F001070A
:102ED0000AEB05014CDD01EB0902A2F80474BAF813
:102EE000502001F20645A95A002E6FF39F21A952E6
:102EF0005CD03E2E5CD803F00101AB5A01EB5601C9
:102F000043EA812364E0590409D53AF81C1040F6DD
:102F10000F731940714401F580412AF81C103AF8EA
:102F20001C10490608D53AF81C1040F60F731940DA
:102F3000714440312AF81C103AF81C1040F63F73D7
:102F400019400EF120034B40012A08BF41EA0E034D
:102F50002AF81C303AF81C1043F60F72114041EA6F
:102F60000E0200212AF81C2080F89012BDE8F0879C
:102F70004944A1F800743AF81C10490608D53AF8FB
:102F80001C1040F60F731940714440312AF81C1090
:102F90003AF81C1040F63F73012A01EA03020EBF03
:102FA00042EA0E020EF120014A40DAE7515B0AE0E4
:102FB000F6064FEA5311AE5A4FF0FF3708BF07EB42
:102FC000531146EA812148F20003CFF6FF730B4309
:102FD000AB523AF81C10490409D53AF81C1040F6D7
:102FE0000F721140714401F580412AF81C1044B160
:102FF0003AF81C1043F60F7211400EF500524A4089
:10300000AFE7BAF8001043F60F7211400EF54052C8
:103010004A40A6E710B5037901F0070E9E4501D995
:10302000082134E001EB810300EBC3030EEB8E02B9
:103030004FFA81FC03F5A87300EBC202BCF1000F4C
:1030400048BF02F1100390F89022C909597001217C
:10305000012A997083F800E001D1102117E001687E
:1030600040F63F7331F82E4048F29002BCF1FF3F2A
:10307000C8BF43F60F73CFF6FF72C8BF02F57F6279
:1030800023405A4021F82E20002180F8901240F26F
:103090000030C0F20130C840C0B210BD2DE9F04F81
:1030A00082B04F78012F5CD18B690A690F7B934204
:1030B00028BF1346002F7DD0CF780C6A022F40F036
:1030C000C1800D7840F60F6630F825704FEA450E46
:1030D000944206EA070648F2B00C40F20C8147F62B
:1030E0005077F61BD036A4EB030A20F81E60C1F817
:1030F00020A030F81E60B0F85070ED0076069EB249
:1031000000EB050800F1578108EB0704A4F802342E
:10311000D1F814B0002E00F0EB820D890136054481
:1031200005F580694FF0FF3505EB5604C6F3410500
:10313000002D4FEA560700F04E825E46CDE900486A
:1031400036F8028B5C46CB46012D2BF8028B40F003
:103150004682009DDDF80480D9462F46A3462C46C2
:10316000B4E20A7B002A49D0CA78012A00F09E8086
:10317000022A40F077830A78002F40F0E181B0F80E
:103180005030034403F2024737F832306FF39F2385
:1031900027F832300B69002B00F08C813E2B00F2B7
:1031A0008F8103F0010637F8325006EB530645EAEB
:1031B000862696E11A0400F05381CA88D1F814E0FB
:1031C000024402F58068012212FA83F24FF0FF37C1
:1031D000C2F3410407EB520C002C4FEA520200F0FC
:1031E0002C81774637F8025B4646012C26F8025BB5
:1031F00040F00E81BE46B04662461EE18F690B6903
:10320000FA1A38BF00228A61B0F850600A7800EBE1
:10321000060101F2064131F8326038BF3B466FF3D8
:103220009F26002B21F8326000F0C4813E2B00F273
:10323000B58003F0010731F8326007EB530346EA2B
:103240008323BBE1E21A0F780A6230F82720B0F836
:103250005040FD00520605444FEA470E9AB248F22C
:10326000B00C2C4477D4002AA4F8023400F0F18288
:103270000B890132496903444FF0FF34C2F3410521
:1032800003F5806304EB5208002D4FEA520200F070
:10329000C4810E4636F8024B1F46012D27F8024B1B
:1032A00040F0ED8031463B464246B6E18A690B6903
:1032B000D61A3CBF002613460A78002F8E6140F0D4
:1032C0007F81B0F85010002B014401F2024131F827
:1032D00032706FF39F2721F8327000F0EE803E2BA2
:1032E00000F2478103F0010731F8326007EB530722
:1032F00046EA87274EE147F65072B21A303A20F874
:103300001E20B0F8502000EBC5031A442304A2F895
:10331000024400F09E820A894969024402F58063F2
:10332000012212FA84F24FF0FF34C2F3410504EB9C
:103330005208002D4FEA520200F08A810E4636F8FC
:10334000024B1F46012D27F8024B40F0A180314669
:103350003B4642467CE1002AA4F8063400F079821C
:103360004B890132496903444FF0FF34C2F34105F0
:1033700003F5806304EB5208002D4FEA520200F07F
:1033800083810E4636F8024B1F46012D27F8024B6B
:1033900040F0878031463B46424675E1DD0631F814
:1033A00032504FEA53174FF0FF3608BF06EB531762
:1033B00045EA872300E108EB0705A5F80634D1F8B4
:1033C00014B0002E00F0EA814D890136054405F560
:1033D00080694FF0FF3505EB5604C6F34105002D1B
:1033E0004FEA560700F0F9805E46CDE9004836F80E
:1033F000028B5C46CB46012D2BF8028B40F0FB8004
:10340000009DDDF80480D9462F46A3462C46B3E143
:10341000BEF80250022CA8F8025005D108F10408A9
:103420000EF1040E023A08E0BEF804400EF1060E5A
:10343000A8F8044008F10608033ABCF1030F0FD3C3
:10344000AEF10807A8F1080637F8085F043A26F835
:10345000085F7D887580BD88B580FD88F580F3D1D3
:10346000B0F850200978024402EBC10248F2B00CD7
:10347000A2F802344FEA410E40F63F71EBE14C886E
:10348000022D5C8040F0C48004330431023AC4E071
:103490004C88022D5C8040F0D68004330431023A1F
:1034A000D6E04C88022D5C8040F0E9800433043182
:1034B000023AE9E037F832600EE031F8327064E049
:1034C000DC064FEA531637F832404FF0FF3508BF9D
:1034D00005EB531644EA862648F20005CFF6FF7541
:1034E0002E4327F83260B0F85070074407F20647C1
:1034F00037F832606FF39F2627F8326053B13E2BC6
:103500000BD803F0010637F8325006EB530345EAB7
:10351000832313E037F832300BE0DC0637F8324013
:103520004FEA53164FF0FF3508BF05EB531644EA38
:10353000862348F20006CFF6FF76334327F8323071
:10354000C969E9B330F8221044F2400319409942A6
:1035500000D0A9BB510030F8113040F60F773B4046
:1035600048F2B007CFF6FF773B43103320F8113015
:1035700026E0DD064FEA531731F832504FF0FF36A0
:1035800008BF06EB531745EA872748F20006CFF637
:10359000FF76374321F83270B0F85010002B014409
:1035A00001F2064131F832706FF39F2721F8327033
:1035B0007FF43CAE31F8323043F4004321F832302E
:1035C00042F6D071A1F5E0414FEA420EA1F5756CCB
:1035D00043F60F713FE15E4678E05E46CCE06688D8
:1035E000022DA346A9F8026065D109F104090BF187
:1035F0000406023F68E06688022DA346A9F802602F
:1036000040F0AF8009F104090BF10406023FB1E07C
:103610008C8806319C800633033AB8F1030FC0F062
:103620001881A1F10804083B34F8081F043A23F874
:10363000081F61885980A1889980E188D98040F667
:103640003F71F1D107E18C8806319C800633033A43
:10365000B8F1030FC0F0FD80A1F10804083B00BFE2
:1036600034F8081F043A23F8081F61885980A1889C
:103670009980E188D98040F63F71F1D1EBE08C88E8
:1036800006319C800633033AB8F1030FC0F0E180A5
:10369000A1F10804083B00BF34F8081F043A23F8DE
:1036A000081F61885980A1889980E188D98040F6F7
:1036B0003F71F1D1CFE0BBF804500BF10606A9F839
:1036C000045009F10609033FDDE90048032C0FD33C
:1036D000083EA9F1080500BF36F8084F043F25F859
:1036E000084F74886C80B488AC80F488EC80F3D187
:1036F0000BEB030600244E61924588BFAAEB03043E
:103700000C62B0F8502088BF9A4608EB02031FFAFB
:103710008AF2002AA3F806A400F09B8049890132AE
:1037200001444FF0FF33C2F3410401F5806103EB24
:103730005208002C4FEA52026CD0354635F8023B55
:103740000F46012C27F8023B03D12E46394642464C
:1037500060E07388022C4B8057D104310436023A62
:1037600058E0BBF804500BF10606A9F8045009F123
:103770000609033FDDE90048032C0FD3083EA9F1F9
:10378000080500BF36F8084F043F25F8084F748835
:103790006C80B488AC80F488EC80F3D10BEB03062A
:1037A00000244E61924588BFAAEB03040C62B0F876
:1037B000502088BF9A4608EB02031FFA8AF2002ABB
:1037C000A3F802A445D00989013201444FF0FF3328
:1037D000C2F3410401F5806103EB52084FEA520243
:1037E000A4B3354635F8023B0F46012C27F8023BBF
:1037F00003D12E463946424628E07388022C4B807E
:103800001FD104310436023A20E0B38806368B809B
:103810000631033AB8F1030F1BD3A6F10803A1F157
:10382000080400BF33F8081F043A24F8081F598819
:1038300061809988A180D988E18040F63F71F1D1FB
:1038400009E0B38806368B800631033AB8F1030FDE
:103850000BD240F63F7130F81E20114081EA0C0176
:1038600020F81E1002B0BDE8F08FA6F10803A1F108
:10387000080400BF33F8081F043A24F8081F5988C9
:1038800061809988A180D988E18040F63F71F1D1AB
:10389000E1E700002DE9F04F81B044F2004BC2F2A5
:1038A000000BDBF80000B0F844100AB2B2F1FF3FA1
:1038B0001FDD4A0526D4B1F5804F61D2B1F5005F16
:1038C00069D2B1F5805F81F04B80B1F5006F81F076
:1038D0007E800A0601F18E80B1F5007F81F0B28012
:1038E000B1F5807F49D3B0F8441021F4807101F024
:1038F00069B8B0F94410B1F1FF3F3EDC40F60F77F4
:1039000000246EE0B0F8441021F48061A0F8441067
:103910009BF80500022839D1DBF8D84201200021AC
:10392000207484F89C02C4F89412D4F8B802616040
:10393000C4F8A412E8B1D4F8BC1221B1426812B1A3
:10394000204600219047D4F8C402002100224023E1
:103950004025FFF717FAD4F8C4020126802100227F
:103960004023A4F86461C4F86051FFF70BFAA68401
:1039700025629BF89002012813D101B0BDE8F08FB9
:10398000B0F8441021F4804101F01CB8EFF310802E
:1039900072B600BFFEE7B0F8441021F4005101F008
:1039A00011B800208BF80C00DBF800108022A1F881
:1039B0004C208BF8900201B0BDE8F08FB0F85010A9
:1039C0002A78084400EBC200A0F806442878FDF7E6
:1039D000B7F900BFDBF80000B0F94410B1F1FF3FC8
:1039E000CBDCB0F8442012F00F080DD030F92810CD
:1039F0004FEA480AB1F1FF3F1FFA81F934DD5FEA6F
:103A00000960E7D59CE100BF0188D20673D4394034
:103A100001F500410180B0F850109BF810200844D7
:103A200000EBC200B0F80204DBF824106FF39F2013
:103A3000CBF82C000844CBF824000020FDF780F9D7
:103A40009BF80C000028C5D0DBF828000028C1D165
:103A50009BF80C00DBF8001040F08000C0B2A1F829
:103A60004C008BF80C40B5E730F81A103940803123
:103A700020F81A1008EB88010BEBC10191F85C21CA
:103A800001F5A875002A00F0E380E978022940F0EA
:103A9000EE80B0F850302978AA6903445FEA4947BC
:103AA00003EBC10300F1FE80B3F806646FF39F26B9
:103AB000921B38BF2246AA610BD830F8212043F66A
:103AC0000F731A404CF28003A3F500535A4020F8BC
:103AD00021205FEA496240F60F7708D430F82120B0
:103AE00048F290033A401A44303220F82120002E48
:103AF00040F0D580FAE00A054BD409B2B1F1FF3F9E
:103B00003FF768AF0188394080310180B0F850102C
:103B10009BF85021014401EBC201B1F806346FF368
:103B20009F23CBF86C3193B1DBF8641179B1BBF80A
:103B3000562100F0C1FFDBF86401DBF86C1108448A
:103B4000CBF864010020FDF78DF9DBF80000018857
:103B50000A053FF53FAF01F44051B1F5405F3FF436
:103B600039AFB0F8501000F20642535A6FF39F235A
:103B70005352DBF86031002B00F0A1823E2B00F2A3
:103B8000268303F00107565A07EB530346EA8323C3
:103B90002DE3B0F850109BF85021014401EBC20115
:103BA000B1F80634BBF856216FF39F230BF526714D
:103BB0004FF0000ACBF86C3100F07EFFDBF800001C
:103BC000012501883940803101809BF89A229BF8B9
:103BD0009B02DBF8D89242EA00249BF998329BF8CA
:103BE0009962A9F8AC429BF89C129BF89D0289F857
:103BF000AA3241EA0027BBF89E0289F8AB62A9F815
:103C0000AE72A9F8B002C9F8945203F01F0509F288
:103C1000AA28022DC9F8980200F09881012D00F021
:103C20007081002D40F0A48113F0600100F0A682A5
:103C3000402948F2900502D0202940F01A82D9F894
:103C4000B802414682684846904740F60F77CCE379
:103C5000B0F850102A78014401EBC201B1F80664B3
:103C60006FF39F26002E41D06969EA8848E02A78E0
:103C700048F2900330F8221039401944303120F8CE
:103C8000221030F82230B0F8501000EBC2025B0472
:103C900011442DD4B1F806646FF39F2636B36969D9
:103CA0006A892DE0B3F802646FF39F26921B38BF38
:103CB0002246AA610BD830F8212043F60F731A4030
:103CC0004CF28003A3F500535A4020F821205FEA0C
:103CD000496240F60F7708D530F8212048F290036A
:103CE0003A401A44303220F821203EB900260AE03A
:103CF000B1F802646FF39F26002EF7D069692A8914
:103D0000334600F0D9FEE969D5E905023144304473
:103D1000E961686112B12869B04207D92878FDF7D6
:103D2000A1F85FEA09607FF555AE09E0DBF8000015
:103D30002946FFF7B3F95FEA09607FF54BAE00BF94
:103D4000DBF8000008EB880130F81A200BEBC1010A
:103D50003A4002F5004220F81A20CA7C01F1100511
:103D6000012A21D1297BAC6100293FF42FAE5FEA03
:103D7000496177D4697801293FF420AE00297FF4A6
:103D800025AEB0F850102A78084400EBC200B0F815
:103D900006146FF39F21A0F80614B0F8061441F43E
:103DA0000041A0F8061411E65FEAC95119D4B0F831
:103DB00050202978024402EBC102B2F80224AB6918
:103DC0006FF39F229B1A38BF2346AB6164D96969A0
:103DD000EB69114469619918E9612946FFF75EF9B9
:103DE000F8E5B0F850302978AF69002440F60F7C30
:103DF0005FEA496200EBC10650D406F20642D35A8C
:103E00006FF39F23FF1A38BF274648F29004AF6133
:103E100040F2DC805FEA494708D430F821704CF268
:103E2000800607EA0C07374320F8217095F8241024
:103E300040F60F77012940F0CB82D5E90471D5E92E
:103E4000074619441C44BE426961EC6180F0DE8182
:103E5000002E4FF0000700F015822F6285F82470C5
:103E6000374612E26978012900F0F78000297FF4D3
:103E7000ADADB0F850102A78084400EBC200B0F89D
:103E800002146FF39F21A0F80214B0F8021441F459
:103E90000041A0F8021499E5084698E506F20242AE
:103EA000D35A6FF39F23FF1A38BF274648F2900476
:103EB000AF6140F2AF805FEA494708D530F8217022
:103EC0004CF2800607EA0C07374320F8217095F87A
:103ED000241040F60F77012940F07A82D5E9046179
:103EE000D5E9077419441F44B4426961EF6180F059
:103EF00090810027002C85F8247040F08C811C46AE
:103F00008AE113F0600048F2900518BF402840F0A5
:103F1000AD8099F89C0240F60F77013802284FF0E7
:103F2000000498BF012940F29381D9F8C40201230B
:103F300090F8901201294FF480718374018240F04F
:103F4000A88080F85231A0F8504143E513F0600298
:103F500000F0EC80402A40F60F7702D0202A40F093
:103F6000C981D9F8B80241468268484690473CE288
:103F7000D9F8C402D9B24FF4A872002B48BF10225E
:103F80008718C909797090F890120126BE7001292E
:103F90004FF0000440F60F7784543FF41BAD0168E6
:103FA000B3F1FF3F0A8840F63F73C8BF43F60F7373
:103FB00048F2900702EA0302C8BF07F57F677A401C
:103FC00040F60F770A8080F8904203E56B78012B6A
:103FD0007CD0002B40F60F7740F08380B0F8503053
:103FE0003344B3F802746FF39F27A3F80274B3F855
:103FF000027447F40047A3F80274B0F8500040F68A
:104000000F77135A6FF39F231352135A43F400434D
:10401000135266E06B78012B6AD0002B40F60F77C5
:1040200071D1B0F85030D75A6FF39F27D752D75A73
:1040300047F40047D752B0F8500040F60F773044AD
:10404000B0F806246FF39F22A0F80624B0F80624E7
:1040500042F40042A0F8062455E0B0F850102A7847
:10406000084400EBC200A0F80244AFE420283FF46B
:1040700050AFD9F8C402012390F8901240F60F77A0
:1040800001294FF48071837401824FF000043FF4E2
:1040900058AF016840F63F760A8832406A400A808D
:1040A00080F8904280F85231A0F85041088843F6D9
:1040B0000F72104005F57F62504008808AE48B5AE9
:1040C00048F20006CFF6FF76334392E0B0F8503066
:1040D00000273344A3F80274B0F85000175240F69A
:1040E0000F770846FCF72CFE5FEA494012D56FE1D6
:1040F000B0F850300027D752B0F850003044A0F844
:10410000067440F60F770846FCF71AFE5FEA49404E
:1041100040F15E81DBF8000029784CF2800330F832
:1041200021203A401A4320F8212051E1002E40F688
:104130000F7700F0F080012E00F0C580032E40F0D4
:10414000058199F89C220125032A00F05F82022A4A
:1041500048F2900600F0BE80D9F8C402002490F81E
:104160009012857401294FF48071018240F0B98268
:1041700080F85251A0F85041FFF72CBC092E00F2F4
:104180003781DFE816F00A005A013501B201350126
:10419000BE01D90135014A01790199F89C12013912
:1041A000022900F29581022840F60F7740F07782CD
:1041B000D9F8A402494600284FF0030008BF0120A7
:1041C00041F80C0F48460222FEF7EAFC0DE1DE063C
:1041D0004FEA5317565A4FF0FF3508BF05EB5317F8
:1041E00046EA872348F20007CFF6FF773B4340F6C5
:1041F0000F778B52018843F60F7211404CF2800208
:10420000A2F5805251400180FFF7E4BBF31B2B6203
:104210003BE0A71B34462F626B7840F60F77012BEB
:104220002CD0002B40F0B780B0F85030002CD75A7B
:104230006FF39F27D75200F097803E2C00F29B80AF
:1042400004F00107D65A07EB540746EA87279FE098
:10425000D9F8B8024146826848469047B9F8B0128A
:10426000002908BF00287FF4B5AB0420C9F89402E8
:10427000D9F8C412012081F83400D9E1B0F85030E7
:10428000D45288E085F824701F466B7848F2900479
:10429000012B14D0002B40F09580B0F85030002F47
:1042A000D65A6FF39F26D65260D03E2F7AD807F0A9
:1042B0000106D45A06EB570644EA86267FE0B0F89A
:1042C0005030D7527EE099F89C02032800F05581C7
:1042D00002280FD1D9F8C4024A064FF0000400F0BA
:1042E0000E83FEF797FED9F8C4028021FEF792FEF6
:1042F000FFF770BBD9F8C402012390F890128374C1
:1043000001294FF48071018248F290054FF00004BA
:104310003FF417AEBDE699F89C020123032800F094
:104320003F81022848F290054FF0000440F08D8153
:10433000480640F0E2821420002908BF4FF4AA701A
:1043400009EB000149F8004048462DE2D9F8C402C3
:10435000012390F89012837401294FF48071018237
:104360007BD180F85231E2E0D75A0FE0D65A46F4BA
:104370000046D65226E06709E60632F803C04FF041
:10438000FF3608BF06EB54174CEA872747F400476F
:10439000D75240F60F772A89A3B200F0D7FB48F234
:1043A000900415E07E09FC0632F803C04FF0FF349C
:1043B00008BF04EB57164CEA862646F40046D65250
:1043C00048F290046A89BBB200F0C0FB40F60F7758
:1043D000DBF80000297840F63F7330F821201A40BE
:1043E00004F120035A4020F821200024FFF7F2BAFC
:1043F000D9F8C402012390F89012837401294FF474
:104400008071018240F02481002480F85231A0F8AC
:10441000504140F60F77FFF7DDBA012858D199F8DF
:104420009C0240F60F77411E02294FF0000480F0F5
:104430006C81494641F8084F6CE199F89C020138BB
:10444000022845D8A0B2012840F60F774FF00004AB
:104450007FF4C0AAC9F8A4424AE2016840F63F7658
:104460000A880024324048F2900672400A8080F8A0
:10447000904280F852313FE140F29010022AC2F29D
:104480000000027024D299F89C0240F60F770328AE
:1044900000F0468102284FF0000440F06681002AB7
:1044A00000F02682D9F8B802C9F80420002800F0EC
:1044B00024820368484611469847002840F01D8230
:1044C0004846FEF785FB032089F89C02FFF782BA75
:1044D000D9F8C4028021FEF79DFDD9F8C40200215D
:1044E000FEF798FD40F60F777FE7A0B2012840F66F
:1044F0000F774FF000047FF46DAA0120C9F8A402E1
:10450000F6E139044FF0010508BF002800F0BC8037
:10451000D9F8C40240F60F7790F8901285740129FB
:104520004FF48071018240F0C58080F85251002420
:10453000A0F85041FFF74EBA0024ADF80240B9F898
:10454000AC024FF0FF3101EB10210E2900F2E181A6
:10455000DFE811F00F0066012F01DF01DF017601B6
:104560008401DF01DF01DF01DF01DF01DF01DF01A6
:104570003C01D9F8B4020268A2E120044FF0000423
:104580007FF428AA480603D0D9F8C402FEF7A0FB9E
:104590004846FEF71DFBD9F8B80241468268F9E0AB
:1045A00001F00F0248B202EB8202B0F1FF3F09EBCB
:1045B00082024FF00004D4BF928CB2F86421002A2A
:1045C00000F0A78101F07F0202EB820309EB830276
:1045D000143201EB8107B0F1FF3F09EB8706C8BF3A
:1045E00006F5AA72490600F0D980D9F8C41200284D
:1045F00001EBC30301EBC70101F5A97148BF03F14A
:1046000012010878002818BF0120C8E0220407D151
:1046100011F07F0204D018B9D9F8C402FEF7FAFCF1
:104620000420C9F89402D9F8C412002481F8345047
:1046300008684FF480724C628C62CC620C6321F883
:10464000102FFEF72BFDFFF7C5B9D9F8C4026FE4B0
:10465000016840F63F770A8800243A4048F2900704
:104660007A400A8080F8904280F85231A0F8504198
:10467000088843F60F72104007F57F6250400880AB
:1046800040F60F77FFF7A6B9A0B27F283FF640AFFC
:1046900099F89C0240F60F77032840F0A680D9F8DD
:1046A000C4028021FEF7B6FCD9F8C4020021FEF74F
:1046B000B1FC9AE6016840F63F730A8800241A406C
:1046C00048F290035A400A8080F8904280F8525194
:1046D000A0F85041088843F60F72104003F57F623E
:1046E000EAE4016840F63F730A881A4072400A8083
:1046F00080F8904280F85251A0F85041088843F663
:104700000F72104006F57F62D6E4032840F0F58072
:1047100009F1040148460122FEF742FAFFF75AB9AF
:10472000002A00F0AB80D9F804000024904200F089
:10473000DF80D9F8B812002900F0F9804A68C1B2C8
:104740004846904740F29011D9F8B802C2F20001F1
:1047500009780028C9F8041000F0EB800268484688
:104760009047002840F0E580C2E0D9F8C4028021DB
:10477000FEF750FCD9F8C4020021FEF74BFCD9F833
:10478000B80200283FF426A940F29011C2F20001BD
:104790000978426848469047FFF71CB9002040F668
:1047A0000F771060484611460222FEF7F9F9FFF72D
:1047B00011B9C0B2052800F2AC80DFE800F0037543
:1047C00071796D7DD9F8B402426878E0D9F8B40205
:1047D00040F60F77C269002A00F08F8099F8100028
:1047E0000DF102019047014672E0D9F8C40289F840
:1047F0009E2290F89012012907D002731AB901681D
:104800008022A1F84C2080F890A24846FEF7E0F9FB
:1048100020040EBF89F89C52022089F89C02E4E52E
:1048200099F81010D9F8B80200290CBF816AC16A42
:104830000DF1020040F60F778847014602201BE089
:1048400099F8100040F60F77002856D1D9F8B80231
:10485000416B0DF102008847014639E099F81000DC
:1048600040F60F77002848D1D9F8B802016B0DF156
:104870000200884701460720487029E0022089F895
:104880009C02D9F8B8020024C9F8042080B3426819
:104890004846002190472BE0D9F8B40242690EE067
:1048A000D9F8B402C2680AE0D9F8B402826806E016
:1048B000D9F8B402026902E0D9F8B402826942B3BD
:1048C00099F810000DF102019047014640F60F776C
:1048D000B9F8B02262B1BDF8020070B1904238BFA1
:1048E00002464846ADF80220FEF75AF9FFF772B8C3
:1048F0004846FEF76DF9FFF76DB8D9F8C40280217C
:10490000FEF788FBD9F8C4020021FEF783FBFFF70E
:1049100061B8D9F8C4028021FEF77CFBD9F8C40243
:104920000021FEF777FB40F60F77FFF753B8C9F881
:104930000420D9F8C4028021FEF76CFBD9F8C40228
:104940000021FEF767FBD9F8B80220B199F80410EE
:10495000426848469047022089F89C02FFF73AB81F
:10496000B0F8401021F00401A0F84010B0F8401059
:1049700021F00801A0F840109BF8C802012804D1DA
:1049800000208BF8C802FCF7A3F99BF8090048B196
:104990004EF61050CEF20000016821F006010160D1
:1049A000FDF7BEFCDBF8D80290F89C12042904BF86
:1049B00090F89D1280F89C12DBF80000B0F84410CB
:1049C00021F48051A0F8441001B0BDE8F08FB0F898
:1049D000401041F00801A0F84010B0F8441021F454
:1049E0000061A0F84410B0F8401041F00401A0F8B4
:1049F000401008E0B0F8441021F08001A0F8441005
:104A00009BF8C812C1B343F6E870C2F2000000215F
:104A10000170DBF8D80290F89C1280F89D120421F6
:104A200080F89C129BF8090000283EF4A6AF4EF6D1
:104A30001050CEF20000016841F00601016001B0A3
:104A4000BDE8F08FB0F8441021F40071A0F84410D4
:104A5000DBF8D802D0F8B81200293EF48EAF90F8F7
:104A60009C22032A7EF489AFC96900293EF485AFF0
:104A700001B0BDE8F04F0847B0F8401041F0040124
:104A8000A0F84010B0F8401041F00801A0F8401024
:104A900001218BF8C812B0F854003C2101EA9000C3
:104AA000DBF8D812CBF8CC0291F89C0281F89D0279
:104AB000042081F89C02B5E770B51044022B00F584
:104AC00080643CD34FF0FF32C3F34105580802EB3A
:104AD000530C55B1224632F8026B8E46012D2EF84A
:104AE000026B04D17146604611E022460FE06288F5
:104AF000022D4A8004D1221D01F1040E023805E086
:104B0000A688A21D01F1060E03388E807146BCF105
:104B1000030F144614D300BF32F8086B043821F891
:104B2000086B32F8066C21F8066C32F8046C21F838
:104B3000046C32F8026C21F8026CEDD114468E46FA
:104B4000D8071CBF20888EF8000070BD002B08BF5E
:104B50007047B0B5104400F5806E581C4FF0FF321E
:104B6000C0F3410302EB500C4FEA5000BBB10A46C0
:104B700032F8025B7446012B24F8025B06D1114621
:104B8000A6466046BCF1030F0CD21BE04A88022BFC
:104B9000AEF8022019D10EF1040E04310238BCF136
:104BA000030F0FD30839AEF1080200BF31F8083FF8
:104BB000043822F8083F4B8853808B889380CB8839
:104BC000D380F3D1BDE8B04070478A880631AEF893
:104BD00004200EF1060E0338BCF1030FE2D2F1E718
:104BE000FEE70000000000009AB04EF60C56CEF230
:104BF000000630684FF6FF01084040F20031C0F275
:104C0000FA510843306040F22000C2F2000001680F
:104C100044F6D352C1F26202A1FB02134FF0FF32FD
:104C200002EB9313002147F21409B1EB136FC4F2A6
:104C300000093FD14EF20017CEF2000747F8EC3CD6
:104C4000F023F375072347F8E81C47F8F03C336876
:104C5000C3F3022383F00707042F28BF0427BA40B9
:104C6000033B6FEA020238BF0B469A401201F2750D
:104C700044F22C72C2F200020123137041F24C0282
:104C8000C4F20202536943F001035361536903F014
:104C900001030993099BD36843F08053D360D26822
:104CA00002F080520992099A59F80C2C42F4804281
:104CB00049F80C2CCDE90D11CDE90B1159F8141C54
:104CC000D9F86C2001F4C06142F48072B1F5806FB4
:104CD000C9F86C202BD159F8141C012262F34A2127
:104CE00049F8141C0068322148434DF68361C4F230
:104CF0001B31A0FB0101880CD9F80010490514D51F
:104D0000411C12D0D9F8001049050ED568B1D9F868
:104D10000010490509D5012807D0D9F80010490528
:104D200003D50228A0F10400E6D1D9F80000212023
:104D300009904FF480300A9001200F900220032444
:104D40002B211090CDE91140CDE91310CDE91500CC
:104D500009A8FCF72BFC20B1EFF3108072B600BF5E
:104D6000FEE70F20CDE904040020CDE906000890FD
:104D700004A8FCF749FA20B1EFF3108072B600BF27
:104D8000FEE741F24C07C4F20207386845F640419D
:104D900040F0010038603868C4F2000100F0010002
:104DA000099009980888039140F0020008800120CA
:104DB000CDE90A00022009AC28264FF4006A0C90C5
:104DC0004FF090402146C4F60006CDF824A0FBF732
:104DD000E3FC4FF480554FF0904021460995FBF7D6
:104DE000DBFC44F22872C6F800A03560C2F2000273
:104DF000106800BF1168091AB1F5FA7F0ED8116862
:104E0000091AB1F5FA7F09D81168091AB1F5FA7FC4
:104E100004D81168091AB1F5FA7FEBD94FF0000AEE
:104E2000CDE90CAA386809AD40F020003860386838
:104E300043F61C0800F020000490049838682024F1
:104E400040F00100386038684FF0010B00F00100BD
:104E5000049004983868294640F0020038603868A9
:104E6000C4F2000800F0020004900498386840F092
:104E700004003860386800F00400049004984FF093
:104E800090403460CDE909BACDF82CA0FBF784FC42
:104E90004FF090402946CDE9094BCDE90BAA454694
:104EA000FBF77AFC57F8040C4EF60C5840F004005F
:104EB00047F8040C57F8040CCEF2000800F0040088
:104EC0000990099857F8040C4EF2001140F00100C7
:104ED00047F8040C57F8040CCEF2000100F0010072
:104EE00009900998D8F800004EF20B40CEF200006D
:104EF00080F800A04FF40060086041F6E43044F20E
:104F00001C342844C2F200044AF6F501C1F2F10152
:104F100084E8030C2046C4E904AAC4E906AAC4F83C
:104F200020A0FBF70BFD20B1EFF3108072B600BF9D
:104F3000FEE794F8400094F8411020294FD1012851
:104F40004DD0242284F84120216820230868AA46F5
:104F500020F001000860086820F4805008600868AC
:104F60000860086840F001000860002084F84130C3
:104F700084F8400094F84150202D34D184F8412029
:104F80000A6844F2703B22F001020A600A68C2F229
:104F9000000B22F470620A600A6842F001020A60A3
:104FA00084F8413041F6E4714AF6F702012384F8AF
:104FB00040005144C1F2E002CBE90203CBE9040016
:104FC000CBE90600CBF8200058465446CBE9001246
:104FD000FBF7B4FC58B1EFF3108072B6FEE7EFF3C5
:104FE000108072B6FEE7EFF3108072B6FEE79BF812
:104FF00040009BF8411020296DD101286BD024225C
:105000008BF84120DBF800002023016821F001012A
:105010000160016821F4805101600168016001684C
:1050200041F00101016000218BF841308BF8401004
:105030009BF84150202D52D18BF84120026844F258
:10504000C43522F0010202600268C2F2000522F4B7
:1050500070620260026842F0010202608BF8413027
:10506000A4F11C004FF400724BF680338BF8401013
:10507000C5E90002C5E90211C5E90423A96195F853
:10508000350080B3022085F83500216840F6BF72F4
:105090009143A146216049F8040F4BF680300190FE
:1050A0002246D5E902E041F20804029057F8400C8C
:1050B0000023BEF1210F00F0030042F2004CC4F2C5
:1050C000020438BF01230228C0F2F40C23D14FF4AC
:1050D000806061462CE0EFF3108072B6FEE7EFF3DC
:1050E000108072B6FEE7002009AC85F83400201D60
:1050F0004021FBF774F94FF4006009904FF48000F1
:1051000014902046FBF70CFF00286ED0EFF31080C0
:1051100072B600BFFEE757F8400C394600F00300B6
:1051200003280CD141F20021C0F27A014FF4003083
:10513000254654F8084C204018BF084601E0254693
:105140000020394657F8404CF96B009201F44001B9
:10515000B1F5000F32D0B1F5800F34D0D1BB286843
:1051600000F00C000428604600F0FC80286800F085
:105170000C00082841F20020C0F27A0000F0F28012
:10518000296801F00C010C2922D157F8401C57F86E
:10519000404C01F00301C4F3031457F8405C0134A0
:1051A000032908BF8446BCFBF4F057F8401CC5F344
:1051B00006253A466843C1F34161CEE048F200005B
:1051C000C0F2BB00CEE057F8401CC90200F1B68027
:1051D0000020C7E055F8080C10F4806018BF604646
:1051E000B1F5400F18BF0020BCE0F868002440F47F
:1051F0008040F860F86804A900F4804004900498A6
:105200003868354640F002003860386800F0020027
:1052100004900498386840F004003860386800F062
:105220000400049004984FF430400490022005904C
:105230000520089006F57670CDE90644FBF7ACFA38
:10524000402004900220CDE905040620089006F5D0
:10525000FB6004A90794FBF79FFA44F2BC21C2F259
:10526000000110204FF4806E88604FF48070C1E917
:10527000050E4FF44050086209F5C630082200F5CB
:105280007B70C4F202020D23802508640220C1E96C
:105290000023CC600D61CC614C6481F8250010685E
:1052A00040F2593565F30E10106002F5FF60886416
:1052B00041F20800C4F20200A0F5F165CD640125B9
:1052C00044F2C43C0D65C2F8F8374FF67C02C2F2D6
:1052D000000CCFF6FF728550C1E91544CC65CC6354
:1052E00081F8255081F82440CCF82C10C1F828C052
:1052F000D8F800004EF20B40CEF2000044764EF299
:105300000010CEF2000010214160DCF80090022570
:10531000DCF814308CF835504A4652F81C0F40F631
:10532000BF7188431060022B49F8205F654640F04A
:105330000D81D5E902EC296902204CE0C4F3031188
:1053400057F8405C0131B0FBF1F0C5F3062157F886
:10535000405C4843C5F341513C46022505EB410101
:10536000B0FBF1F044F2C435DDF808C0C2F200052C
:1053700029690522BCF1000F4FF0070408BF042281
:10538000BEF1210F38BF0824B1F5007F18BFD41833
:10539000E04000EB8000019A4000B0FBF2F04CF6D8
:1053A000CD430530CCF6CC43A0FB03306FF0FF03B8
:1053B00003EB101313F1FE0F07D2A86B40F010009F
:1053C000A863EFF3108072B6FEE7030900F008004F
:1053D000009A43EA40100843C9F80000106840F6FC
:1053E000BF7188436968AB69084340EA0C00184301
:1053F00040EA0E004EF0800140F40060B0291060D9
:1054000003D1106840F48050106044F2DC69002041
:105410000124C2F200094FF08041952240F2E733A7
:10542000A86385F83540C9E90012C9E90203C9F843
:105430001000C9F8180099F83D1059B989F83C00D6
:10544000F868394640F00100F860F86800F00100A3
:105450000990099809F1040802254FF0804041465F
:1054600089F83D50FCF7D4FF89F8484089F83E4060
:1054700089F83F4089F8404089F8414089F8424026
:1054800089F8434089F8444089F8454089F8464006
:1054900089F8474089F83D4099F83C00012804D13B
:1054A000EFF3108072B600BFFEE789F83D50D9F8DF
:1054B000000088228168CFF6CE72114081600124FD
:1054C000002189F83D4089F83C1099F83D200225DB
:1054D000002A08BF89F83C10414689F83D50FCF786
:1054E00097FF89F8484089F83E4089F83F4089F89D
:1054F000404089F8414089F8424089F8434089F8A2
:10550000444089F8454089F8464089F8474089F881
:105510003D4099F83C00012803D1EFF3108072B6AA
:10552000FEE789F83D50D9F8000043F2004E41688B
:105530008368C4F2010E42F6004C7045C4F2010CBF
:1055400006D0604508BF21F4700103E00193A8E58F
:1055500021F470014FF68F72CFF6FF52114042F6E0
:10556000FF32C4F20102904241600FDCB0F1804F83
:1055700016D040F20041C4F20001884210D040F63B
:105580000001C4F2000188420AD00CE0604507D057
:1055900044F20001C4F20101884201D0704502D1F9
:1055A00023F080018160012189F83D10002189F8F4
:1055B0003C10026A016A704521F4807101624468FE
:1055C000C16901D0604502D122F4606201E022F499
:1055D0000072A0F18043A3F596334FEAB323072B63
:1055E00006D801259D4015F0E50F18BF24F440545E
:1055F0004FF68C75CFF6FE75294060314460C1616D
:105600004FF4FA71C1630262C169704541F008014B
:10561000C161C16921F00401C161C169C161026A4E
:10562000016A21F4805101624468C16901D060457A
:1056300002D122F4604201E022F40052072B07D885
:10564000012505FA03F313F0E50F18BF24F44044D5
:1056500048F6FF43CFF6FF63194001F5C0414460AF
:10566000C1614FF4617101640262C169002441F4B7
:105670000061C161C169B0F1804F21F48061C161F5
:10568000C169C16189F83C4016D1386809A940F068
:1056900002003860386800F00200099009984FF461
:1056A000406009900220CDE90A0401200D9006F522
:1056B00076700C94FBF770F843F6EC7140F2000042
:1056C000C2F20001C2F20000C1E9AD040120C1F83C
:1056D000C042C1F8CC4281F89C0244F2004942F237
:1056E000E430C2F200090AEB000C4FF40270A9F892
:1056F000040002200C70C9F8D812C1F8C492C9F88D
:1057000000C089F80700C9F8084099F891020028FC
:1057100000F0EC80032045F6404289F89102C4F283
:105720000002108844F27F01084010804FF0080EFC
:105730004FF0000A4FF00008A9F1A0020EF0FC01A2
:105740000024012000235D1C82F8D8509D1C82F8A3
:10575000B03082F80051DD1C043382F8B10082F8C9
:10576000B340C2E93044C2F8C84082F8D90082F898
:10577000DB40C2E93A44C2F8F04082F8010182F805
:105780000341C2E94444C2F8184182F8290182F871
:10579000285182F82B41C2E94E44C2F840418B4265
:1057A00002F1A002CFD1B8F1000F29D003EB8300A2
:1057B00009EBC00201210020B8F1010F51741374EC
:1057C000D074C2E9080090621AD05A1C02EB82041D
:1057D00009EBC404B8F1020F61742274E074C4E9E7
:1057E0000800A0620CD0981C00EB800109EBC101FD
:1057F0000122087400204A74C874C1E90800886254
:10580000BAF1000F4FF0000337D144F200420EF01E
:10581000FC01C2F200020024601C82F87801A01C86
:1058200082F8504182F8A001E01C043482F8513122
:1058300082F85331C2E95833C2F8683182F87931BD
:1058400082F87B31C2E96233C2F8903182F8A1312B
:1058500082F8A331C2E96C33C2F8B83182F8C93199
:1058600082F8C80182F8CB31C2E97633C2F8E03160
:105870008C4202F1A002CFD12346B8F1000F00F014
:10588000828003EB830009EBC0010020B8F1010F17
:1058900081F8510181F8503181F85301C1E9580074
:1058A000C1F868016FD0591C01EB810209EBC202FB
:1058B000B8F1020F82F8510182F8501182F85301B9
:1058C000C2E95800C2F868015DD0981C00EB800165
:1058D00009EBC101002281F8512181F8500181F8C2
:1058E0005321C1E95822C1F868214CE009AD0024D8
:1058F000281D402189F89042FAF771FD4FF40050BD
:1059000009902846FBF70CFB18B1EFF3108072B634
:10591000FEE7F868394640F40000F860F8684EF297
:10592000001100F40000049004984EF60C50CEF2E2
:10593000000000684EF20B40CEF2000044724FF4BB
:105940008010CEF200010860D9F800C0032099F859
:1059500004E089F89102624632F8400F44F27F0178
:105960000840BEF1000F039210800CD00EF0030827
:105970000023BEF1040F4FF0000A38BF4FF0010AB8
:10598000BFF4DAAE0FE7039A0121002011801080E6
:10599000ACF84400ACF8500089F80C0089F891127A
:1059A00099F80A20012A0FD1C9F8D01289F8C80243
:1059B000BCF8542042F00102ACF85420BCF854204A
:1059C00042F00202ACF8542043F6EC74C2F2000438
:1059D000D4F8C4221023A2F8563182F85C01D4F81E
:1059E000C4225023D3821077D4F8C4229023C0F26B
:1059F0005013C2F8803182F8841140F22402C2F2BE
:105A00000002D16AADF82400C4F8B82219B109A87F
:105A10008847C4F8CC0240F2EC00C2F20000D4F88F
:105A2000C412C4F8C00291F89002012801D11020DC
:105A30000FE00A6800204BF68073A2F84400A2F839
:105A40004030B2F8583043F40043A2F8583081F89F
:105A5000900240F20031C0F2013121FA00F0C0079B
:105A600040F0BE800820FCF7BFF90C20FCF7BCF921
:105A70003868202440F002003860386809A900F036
:105A800002000990099800200D900B9001200A90C7
:105A900002200C904FF090400994FAF77DFE44F2FA
:105AA00028723460C2F2000210681168091A0A29CB
:105AB0000BD81168091A0A2907D81168091A0A2986
:105AC00003D81168091A0B29EFD3202744F20800E4
:105AD00046F8107CADF8240009A80221FBF71EF857
